{
  "address": "0x280481362f3a49F860A315D1e3dd7bc0eA713732",
  "abi": [
    {
      "anonymous": false,
      "inputs": [
        {
          "indexed": true,
          "internalType": "uint256",
          "name": "groupId",
          "type": "uint256"
        },
        {
          "indexed": true,
          "internalType": "uint256",
          "name": "debtId",
          "type": "uint256"
        },
        {
          "indexed": true,
          "internalType": "address",
          "name": "debtor",
          "type": "address"
        },
        {
          "indexed": false,
          "internalType": "address",
          "name": "creditor",
          "type": "address"
        },
        {
          "indexed": false,
          "internalType": "uint256",
          "name": "amount",
          "type": "uint256"
        },
        {
          "indexed": false,
          "internalType": "string",
          "name": "name",
          "type": "string"
        }
      ],
      "name": "DebtAdded",
      "type": "event"
    },
    {
      "anonymous": false,
      "inputs": [
        {
          "indexed": true,
          "internalType": "uint256",
          "name": "groupId",
          "type": "uint256"
        },
        {
          "indexed": false,
          "internalType": "address",
          "name": "creator",
          "type": "address"
        }
      ],
      "name": "GroupCreated",
      "type": "event"
    },
    {
      "inputs": [
        {
          "internalType": "uint256",
          "name": "_groupId",
          "type": "uint256"
        }
      ],
      "name": "acceptInvite",
      "outputs": [],
      "stateMutability": "nonpayable",
      "type": "function"
    },
    {
      "inputs": [
        {
          "internalType": "uint256",
          "name": "_groupId",
          "type": "uint256"
        },
        {
          "internalType": "address[]",
          "name": "_debtors",
          "type": "address[]"
        },
        {
          "internalType": "address",
          "name": "_creditor",
          "type": "address"
        },
        {
          "internalType": "uint256[]",
          "name": "_amounts",
          "type": "uint256[]"
        },
        {
          "internalType": "string",
          "name": "_name",
          "type": "string"
        }
      ],
      "name": "addDebts",
      "outputs": [],
      "stateMutability": "nonpayable",
      "type": "function"
    },
    {
      "inputs": [
        {
          "internalType": "uint256",
          "name": "_groupId",
          "type": "uint256"
        },
        {
          "internalType": "address[]",
          "name": "_creditors",
          "type": "address[]"
        },
        {
          "internalType": "uint256[]",
          "name": "_amounts",
          "type": "uint256[]"
        },
        {
          "internalType": "string",
          "name": "_name",
          "type": "string"
        }
      ],
      "name": "addExpense",
      "outputs": [],
      "stateMutability": "nonpayable",
      "type": "function"
    },
    {
      "inputs": [
        {
          "internalType": "address",
          "name": "",
          "type": "address"
        },
        {
          "internalType": "uint256",
          "name": "",
          "type": "uint256"
        }
      ],
      "name": "balances",
      "outputs": [
        {
          "internalType": "int256",
          "name": "",
          "type": "int256"
        }
      ],
      "stateMutability": "view",
      "type": "function"
    },
    {
      "inputs": [
        {
          "internalType": "uint256",
          "name": "",
          "type": "uint256"
        },
        {
          "internalType": "address",
          "name": "",
          "type": "address"
        }
      ],
      "name": "balances_new",
      "outputs": [
        {
          "internalType": "int256",
          "name": "",
          "type": "int256"
        }
      ],
      "stateMutability": "view",
      "type": "function"
    },
    {
      "inputs": [
        {
          "internalType": "string",
          "name": "_name",
          "type": "string"
        },
        {
          "internalType": "address[]",
          "name": "_members",
          "type": "address[]"
        },
        {
          "internalType": "address",
          "name": "_token",
          "type": "address"
        }
      ],
      "name": "createGroup",
      "outputs": [],
      "stateMutability": "nonpayable",
      "type": "function"
    },
    {
      "inputs": [
        {
          "internalType": "uint256",
          "name": "_groupId",
          "type": "uint256"
        }
      ],
      "name": "getGroupName",
      "outputs": [
        {
          "internalType": "string",
          "name": "",
          "type": "string"
        }
      ],
      "stateMutability": "view",
      "type": "function"
    },
    {
      "inputs": [],
      "name": "getUserGroups",
      "outputs": [
        {
          "internalType": "uint256[]",
          "name": "",
          "type": "uint256[]"
        }
      ],
      "stateMutability": "view",
      "type": "function"
    },
    {
      "inputs": [
        {
          "internalType": "uint256",
          "name": "",
          "type": "uint256"
        }
      ],
      "name": "groups",
      "outputs": [
        {
          "internalType": "string",
          "name": "groupName",
          "type": "string"
        },
        {
          "internalType": "uint256",
          "name": "nextDebtId",
          "type": "uint256"
        },
        {
          "internalType": "address",
          "name": "token",
          "type": "address"
        }
      ],
      "stateMutability": "view",
      "type": "function"
    },
    {
      "inputs": [
        {
          "internalType": "uint256",
          "name": "_groupId",
          "type": "uint256"
        },
        {
          "internalType": "address",
          "name": "_invited",
          "type": "address"
        }
      ],
      "name": "inviteMember",
      "outputs": [],
      "stateMutability": "nonpayable",
      "type": "function"
    },
    {
      "inputs": [
        {
          "internalType": "address",
          "name": "",
          "type": "address"
        },
        {
          "internalType": "uint256",
          "name": "",
          "type": "uint256"
        }
      ],
      "name": "pendingGroupInvites",
      "outputs": [
        {
          "internalType": "uint256",
          "name": "",
          "type": "uint256"
        }
      ],
      "stateMutability": "view",
      "type": "function"
    },
    {
      "inputs": [
        {
          "internalType": "uint256",
          "name": "_groupId",
          "type": "uint256"
        },
        {
          "internalType": "address",
          "name": "_invited",
          "type": "address"
        }
      ],
      "name": "removeInvite",
      "outputs": [],
      "stateMutability": "nonpayable",
      "type": "function"
    }
  ],
  "transactionHash": "0x1f7adf7bbced2abf2c2ae994d00ecabf977c8bc8193417806f9cddae2023df98",
  "args": [],
  "numDeployments": 11,
  "solcInputHash": "5f17447fa74dbfc7ef93655a4ad23a32",
  "bytecode": "0x6080806040523461001b5760016000556113db90816100218239f35b600080fdfe6040608081526004908136101561001557600080fd5b600091823560e01c80631432aa7c14610a5c57806329a6ca32146109d25780633168a1291461078b57806338514b7e146107355780638db66ed8146105f657806396324bd4146105985780639e6d683014610491578063bf8e9176146103c3578063cbf1304d14610382578063d8314ffc14610275578063e81b7704146100e85763f8ceb451146100a557600080fd5b346100e457816003193601126100e45760209282916100c2610be5565b813583529085528282206001600160a01b039091168252845220549051908152f35b8280fd5b509190346102715760a03660031901126102715782359060249283359067ffffffffffffffff91828111610271576101239036908801610bfb565b9261012c610bb4565b936064803585811161026d576101459036908b01610c69565b9460843590811161026d5761015d9036908b01610cc7565b9861017061016b338a610f56565b61100d565b61017a8789610f56565b1561022e57845b835163ffffffff82169081101561022a576001600160a01b036101b0816101a88489610f42565b51168c610f56565b156101e8578c8b8b8b6101d7866101de966101cf6101e39a998e610f42565b511692610f42565b51926110d7565b6110c2565b610181565b505050601d89602086519362461bcd60e51b85528401528201527f446562746f72206d75737420626520612067726f7570206d656d6265720000006044820152fd5b8680f35b601f89602086519362461bcd60e51b85528401528201527f4372656469746f72206d75737420626520612067726f7570206d656d626572006044820152fd5b8480fd5b5080fd5b50919034610271578160031936011261027157819082549360001985019085821161036f5750836102a68692610f10565b93600192835b8181106103335750506102be81610f10565b94825b8281106103035750505082519260208080860192818752875180945286019601925b8281106102f05785870386f35b83518752958101959281019284016102e3565b806103176103289284999799989698610f42565b516103228288610f42565b52610e6c565b9593959492946102c1565b610350906103479795979694963382610f56565b61035b57610e6c565b9593959492946102ac565b8061032261036886610e6c565b9588610f42565b634e487b7160e01b855260119052602484fd5b50503461027157806003193601126102715760209181906001600160a01b036103a9610bcf565b168152600384528181206024358252845220549051908152f35b50823461048e5760208060031936011261027157823590338352600290818152858420948554156104585750835b855481101561045457808461040961041a9389610d5e565b90549060031b1c1461041f57610e6c565b6103f1565b338652838352610445610434828a8920610d5e565b8154906000199060031b1b19169055565b61044f3386610e91565b610e6c565b8480f35b60649187519162461bcd60e51b835282015260126024820152714e6f2070656e64696e6720696e766974657360701b6044820152fd5b80fd5b509190346102715780600319360112610271578235906104af610be5565b6104bc61016b3385610f56565b6104c68184611064565b1580610587575b15610538576001600160a01b0316835260026020528220805490600160401b82101561052557816105079160016105229594018155610d5e565b90919082549060031b600019811b9283911b16911916179055565b80f35b634e487b7160e01b845260418552602484fd5b815162461bcd60e51b81526020818701526024808201527f4d656d62657220697320616c726561647920696e202870656e64696e672920676044820152630726f75760e41b6064820152608490fd5b506105928184610f56565b156104cd565b50346100e45760203660031901126100e457816105e99382358152600160205220916105c383610dc6565b9260038101549260018060a01b0391015416908051948594606086526060860190610d1e565b9260208501528301520390f35b5090346100e457806003193601126100e457813590610613610be5565b61062061016b3385610f56565b61062a8184610f56565b6106f2576001600160a01b031684526002602052832090835b8254808210156106ea57826106588386610d5e565b919054600392831b1c1461067657505061067190610e6c565b610643565b9093949250600019938481019081116106d7576106a7929161069b6105079288610d5e565b9054911b1c9186610d5e565b82549081156106c4575001906106c06104348383610d5e565b5580f35b634e487b7160e01b855260319052602484fd5b634e487b7160e01b875260118452602487fd5b505050505080f35b815162461bcd60e51b8152602081860152601a60248201527f4d656d62657220697320616c726561647920696e2067726f75700000000000006044820152606490fd5b50503461027157806003193601126102715761074f610bcf565b6001600160a01b0316825260026020528082208054602435939084101561048e575060209261077d91610d5e565b91905490519160031b1c8152f35b509190346102715760603660031901126102715767ffffffffffffffff83358181116109ce576107be9036908601610cc7565b9160243582811161026d576107d69036908701610bfb565b946107df610bb4565b90855494858752600197602095898752858920928a8901808a116109bb578a5580519182116109a857908a92916108168554610d8c565b601f8111610962575b508890601f83116001146108f3578b9190836108e8575b5050600019600383901b1c1916921b9190911782555b87895b6108af575b50507f6958b51b54d963fa8eeeea5b61b83a9ad28f9ee9d5a2f1b8495e6866cb534bb19596976108843389610e91565b60038201550180546001600160a01b0319166001600160a01b0390921691909117905551338152a280f35b81518110156108e3578991906108dc9061044f6001600160a01b036108d48386610f42565b51168b610e91565b909161084f565b610854565b015190503880610836565b858c52898c209190601f1984168d5b8c8282106109415750509084879594939210610928575b505050811b018355905061084c565b015160001960f88460031b161c19169055388080610919565b9192939596978291958786015181550195019301908e969594939291610902565b858c52898c20601f840160051c8101918b851061099e575b601f0160051c019085905b82811061099357505061081f565b8d8155018590610985565b909150819061097a565b634e487b7160e01b8a526041855260248afd5b634e487b7160e01b8b526011865260248bfd5b8380fd5b50829034610271576020366003190112610271578035908254821015610a2057610a1c84610a098186868152600160205220610dc6565b9051918291602083526020830190610d1e565b0390f35b606490602085519162461bcd60e51b8352820152601660248201527523b937bab8103237b2b9903737ba1032bc34b9ba399760511b6044820152fd5b50823461048e57608036600319011261048e5781359067ffffffffffffffff9060243582811161027157610a939036908601610bfb565b936044358381116100e457610aab9036908301610c69565b926064359081116100e457610ac39036908301610cc7565b95610ad161016b3387610f56565b8551845103610b2a575050805b845163ffffffff821690811015610b2657610b2191906101de908890610b186001600160a01b03610b0f838c610f42565b51169188610f42565b519033896110d7565b610ade565b8280f35b906020606492519162461bcd60e51b83528201526014602482015273098cadcced0e8e640c8de40dcdee840dac2e8c6d60631b6044820152fd5b90601f8019910116810190811067ffffffffffffffff821117610b8657604052565b634e487b7160e01b600052604160045260246000fd5b67ffffffffffffffff8111610b865760051b60200190565b604435906001600160a01b0382168203610bca57565b600080fd5b600435906001600160a01b0382168203610bca57565b602435906001600160a01b0382168203610bca57565b81601f82011215610bca57803591610c1283610b9c565b92610c206040519485610b64565b808452602092838086019260051b820101928311610bca578301905b828210610c4a575050505090565b81356001600160a01b0381168103610bca578152908301908301610c3c565b81601f82011215610bca57803591610c8083610b9c565b92610c8e6040519485610b64565b808452602092838086019260051b820101928311610bca578301905b828210610cb8575050505090565b81358152908301908301610caa565b81601f82011215610bca5780359067ffffffffffffffff8211610b865760405192610cfc601f8401601f191660200185610b64565b82845260208383010111610bca57816000926020809301838601378301015290565b919082519283825260005b848110610d4a575050826000602080949584010152601f8019910116010190565b602081830181015184830182015201610d29565b8054821015610d765760005260206000200190600090565b634e487b7160e01b600052603260045260246000fd5b90600182811c92168015610dbc575b6020831014610da657565b634e487b7160e01b600052602260045260246000fd5b91607f1691610d9b565b9060405191826000825492610dda84610d8c565b908184526001948581169081600014610e495750600114610e06575b5050610e0492500383610b64565b565b9093915060005260209081600020936000915b818310610e31575050610e0493508201013880610df6565b85548884018501529485019487945091830191610e19565b915050610e0494506020925060ff191682840152151560051b8201013880610df6565b6000198114610e7b5760010190565b634e487b7160e01b600052601160045260246000fd5b600091818352600160205260016040842001805490600160401b821015610efc5790610ec291600182018155610d5e565b9160018060a01b0380911692839183549160031b90811b9283911b1691191617905582526003602052604082209082526020526040812055565b634e487b7160e01b85526041600452602485fd5b90610f1a82610b9c565b610f276040519182610b64565b8281528092610f38601f1991610b9c565b0190602036910137565b8051821015610d765760209160051b010190565b60009081526001916020838152836040842001604051918281835491828152019286528186209186905b828210610fef575050505090610f9a818694930382610b64565b83945b610faa575b505050905090565b8051851015610fea576001600160a01b0380610fc68784610f42565b511690831614610fe257610fdb839495610e6c565b9493610f9d565b505091505090565b610fa2565b83546001600160a01b03168552938401939288019290880190610f80565b1561101457565b60405162461bcd60e51b815260206004820152602260248201527f596f7520617265206e6f742061206d656d626572206f6620746869732067726f604482015261075760f41b6064820152608490fd5b60005b6001600160a01b03831660009081526002602052604090819020548210156110b957611097828492600020610d5e565b90549060031b1c146110b1576110ac90610e6c565b611067565b505050600190565b50505050600090565b63ffffffff809116908114610e7b5760010190565b919282600052600160205260406000209360038501948554956110f987610e6c565b90556040519060a082019082821067ffffffffffffffff831117610b865760029160405288835260018060a01b038616602084015260018060a01b03841660408401528460608401526000608084015287600052016020526040600020815180519067ffffffffffffffff8211610b86576111748354610d8c565b601f8111611361575b50602090601f83116001146112f2579180608094926004946000926112e7575b50508160011b916000199060031b1c19161781555b6001810160018060a01b03602086015116906bffffffffffffffffffffffff60a01b9182825416179055600282019060018060a01b03604087015116908254161790556060840151600382015501910151151560ff8019835416911617905560018060a01b038316600052600360205260406000208460005260205260406000208054908382039160008512818412811691841390151617610e7b575560018060a01b038116600052600360205260406000208460005260205260406000208054938385019460008587129112908015821691151617610e7b577f12c11720876a43af6b84ee69759066f8ae75366a16b8b46ed317390702e240ef946112e2925560405193849360018060a01b0316845260208401526060604084015260018060a01b0316966060830190610d1e565b0390a4565b01519050388061119d565b908360005260206000209160005b601f19851681106113495750926080949260019260049583601f19811610611330575b505050811b0181556111b2565b015160001960f88460031b161c19169055388080611323565b91926020600181928685015181550194019201611300565b836000526020600020601f840160051c81016020851061139e575b601f830160051c8201811061139257505061117d565b6000815560010161137c565b508061137c56fea2646970667358221220abd8de3453766137cdc4b7c34512cb8050330ba565ef50cf03b322100122d54e64736f6c63430008110033",
  "devdoc": {
    "kind": "dev",
    "methods": {},
    "version": 1
  },
  "userdoc": {
    "kind": "user",
    "methods": {},
    "version": 1
  },
  "storageLayout": {
    "storage": [
      {
        "astId": 198,
        "contract": "contracts/Splitwiser.sol:Splitwiser",
        "label": "nextGroupId",
        "offset": 0,
        "slot": "0",
        "type": "t_uint256"
      },
      {
        "astId": 203,
        "contract": "contracts/Splitwiser.sol:Splitwiser",
        "label": "groups",
        "offset": 0,
        "slot": "1",
        "type": "t_mapping(t_uint256,t_struct(Group)184_storage)"
      },
      {
        "astId": 208,
        "contract": "contracts/Splitwiser.sol:Splitwiser",
        "label": "pendingGroupInvites",
        "offset": 0,
        "slot": "2",
        "type": "t_mapping(t_address,t_array(t_uint256)dyn_storage)"
      },
      {
        "astId": 214,
        "contract": "contracts/Splitwiser.sol:Splitwiser",
        "label": "balances",
        "offset": 0,
        "slot": "3",
        "type": "t_mapping(t_address,t_mapping(t_uint256,t_int256))"
      },
      {
        "astId": 220,
        "contract": "contracts/Splitwiser.sol:Splitwiser",
        "label": "balances_new",
        "offset": 0,
        "slot": "4",
        "type": "t_mapping(t_uint256,t_mapping(t_address,t_int256))"
      },
      {
        "astId": 228,
        "contract": "contracts/Splitwiser.sol:Splitwiser",
        "label": "paymentsToDo",
        "offset": 0,
        "slot": "5",
        "type": "t_mapping(t_address,t_mapping(t_uint256,t_array(t_struct(PaymentToDo)189_storage)dyn_storage))"
      }
    ],
    "types": {
      "t_address": {
        "encoding": "inplace",
        "label": "address",
        "numberOfBytes": "20"
      },
      "t_array(t_address)dyn_storage": {
        "base": "t_address",
        "encoding": "dynamic_array",
        "label": "address[]",
        "numberOfBytes": "32"
      },
      "t_array(t_struct(PaymentToDo)189_storage)dyn_storage": {
        "base": "t_struct(PaymentToDo)189_storage",
        "encoding": "dynamic_array",
        "label": "struct Splitwiser.PaymentToDo[]",
        "numberOfBytes": "32"
      },
      "t_array(t_uint256)dyn_storage": {
        "base": "t_uint256",
        "encoding": "dynamic_array",
        "label": "uint256[]",
        "numberOfBytes": "32"
      },
      "t_bool": {
        "encoding": "inplace",
        "label": "bool",
        "numberOfBytes": "1"
      },
      "t_int256": {
        "encoding": "inplace",
        "label": "int256",
        "numberOfBytes": "32"
      },
      "t_mapping(t_address,t_array(t_uint256)dyn_storage)": {
        "encoding": "mapping",
        "key": "t_address",
        "label": "mapping(address => uint256[])",
        "numberOfBytes": "32",
        "value": "t_array(t_uint256)dyn_storage"
      },
      "t_mapping(t_address,t_int256)": {
        "encoding": "mapping",
        "key": "t_address",
        "label": "mapping(address => int256)",
        "numberOfBytes": "32",
        "value": "t_int256"
      },
      "t_mapping(t_address,t_mapping(t_uint256,t_array(t_struct(PaymentToDo)189_storage)dyn_storage))": {
        "encoding": "mapping",
        "key": "t_address",
        "label": "mapping(address => mapping(uint256 => struct Splitwiser.PaymentToDo[]))",
        "numberOfBytes": "32",
        "value": "t_mapping(t_uint256,t_array(t_struct(PaymentToDo)189_storage)dyn_storage)"
      },
      "t_mapping(t_address,t_mapping(t_uint256,t_int256))": {
        "encoding": "mapping",
        "key": "t_address",
        "label": "mapping(address => mapping(uint256 => int256))",
        "numberOfBytes": "32",
        "value": "t_mapping(t_uint256,t_int256)"
      },
      "t_mapping(t_uint256,t_array(t_struct(PaymentToDo)189_storage)dyn_storage)": {
        "encoding": "mapping",
        "key": "t_uint256",
        "label": "mapping(uint256 => struct Splitwiser.PaymentToDo[])",
        "numberOfBytes": "32",
        "value": "t_array(t_struct(PaymentToDo)189_storage)dyn_storage"
      },
      "t_mapping(t_uint256,t_int256)": {
        "encoding": "mapping",
        "key": "t_uint256",
        "label": "mapping(uint256 => int256)",
        "numberOfBytes": "32",
        "value": "t_int256"
      },
      "t_mapping(t_uint256,t_mapping(t_address,t_int256))": {
        "encoding": "mapping",
        "key": "t_uint256",
        "label": "mapping(uint256 => mapping(address => int256))",
        "numberOfBytes": "32",
        "value": "t_mapping(t_address,t_int256)"
      },
      "t_mapping(t_uint256,t_struct(Debt)169_storage)": {
        "encoding": "mapping",
        "key": "t_uint256",
        "label": "mapping(uint256 => struct Splitwiser.Debt)",
        "numberOfBytes": "32",
        "value": "t_struct(Debt)169_storage"
      },
      "t_mapping(t_uint256,t_struct(Group)184_storage)": {
        "encoding": "mapping",
        "key": "t_uint256",
        "label": "mapping(uint256 => struct Splitwiser.Group)",
        "numberOfBytes": "32",
        "value": "t_struct(Group)184_storage"
      },
      "t_string_storage": {
        "encoding": "bytes",
        "label": "string",
        "numberOfBytes": "32"
      },
      "t_struct(Debt)169_storage": {
        "encoding": "inplace",
        "label": "struct Splitwiser.Debt",
        "members": [
          {
            "astId": 160,
            "contract": "contracts/Splitwiser.sol:Splitwiser",
            "label": "name",
            "offset": 0,
            "slot": "0",
            "type": "t_string_storage"
          },
          {
            "astId": 162,
            "contract": "contracts/Splitwiser.sol:Splitwiser",
            "label": "debtor",
            "offset": 0,
            "slot": "1",
            "type": "t_address"
          },
          {
            "astId": 164,
            "contract": "contracts/Splitwiser.sol:Splitwiser",
            "label": "creditor",
            "offset": 0,
            "slot": "2",
            "type": "t_address"
          },
          {
            "astId": 166,
            "contract": "contracts/Splitwiser.sol:Splitwiser",
            "label": "amount",
            "offset": 0,
            "slot": "3",
            "type": "t_uint256"
          },
          {
            "astId": 168,
            "contract": "contracts/Splitwiser.sol:Splitwiser",
            "label": "paid",
            "offset": 0,
            "slot": "4",
            "type": "t_bool"
          }
        ],
        "numberOfBytes": "160"
      },
      "t_struct(Group)184_storage": {
        "encoding": "inplace",
        "label": "struct Splitwiser.Group",
        "members": [
          {
            "astId": 171,
            "contract": "contracts/Splitwiser.sol:Splitwiser",
            "label": "groupName",
            "offset": 0,
            "slot": "0",
            "type": "t_string_storage"
          },
          {
            "astId": 174,
            "contract": "contracts/Splitwiser.sol:Splitwiser",
            "label": "members",
            "offset": 0,
            "slot": "1",
            "type": "t_array(t_address)dyn_storage"
          },
          {
            "astId": 179,
            "contract": "contracts/Splitwiser.sol:Splitwiser",
            "label": "debts",
            "offset": 0,
            "slot": "2",
            "type": "t_mapping(t_uint256,t_struct(Debt)169_storage)"
          },
          {
            "astId": 181,
            "contract": "contracts/Splitwiser.sol:Splitwiser",
            "label": "nextDebtId",
            "offset": 0,
            "slot": "3",
            "type": "t_uint256"
          },
          {
            "astId": 183,
            "contract": "contracts/Splitwiser.sol:Splitwiser",
            "label": "token",
            "offset": 0,
            "slot": "4",
            "type": "t_address"
          }
        ],
        "numberOfBytes": "160"
      },
      "t_struct(PaymentToDo)189_storage": {
        "encoding": "inplace",
        "label": "struct Splitwiser.PaymentToDo",
        "members": [
          {
            "astId": 186,
            "contract": "contracts/Splitwiser.sol:Splitwiser",
            "label": "creditor",
            "offset": 0,
            "slot": "0",
            "type": "t_address"
          },
          {
            "astId": 188,
            "contract": "contracts/Splitwiser.sol:Splitwiser",
            "label": "amount",
            "offset": 0,
            "slot": "1",
            "type": "t_uint256"
          }
        ],
        "numberOfBytes": "64"
      },
      "t_uint256": {
        "encoding": "inplace",
        "label": "uint256",
        "numberOfBytes": "32"
      }
    }
  }
}